:03000000020800F3
:0C080000787FE4F6D8FD758118020847E7
:1009B400010B0001080F010C03010D0C0A0FC0F913
:0809C400A4B0999282F8809022
:10099400E4FDFCC3ED9FEC9E5015E4FBFA0BBB0099
:0F09A400010AEB647F4A70F50DBD00010C80E481
:0109B3002221
:1008FD00E50A75F00A84FFE50A75F00A84A9F0741B
:10090D000F2FF8E6F580D2B07F027E00120994C257
:10091D00B0740F29F8E6F580D2B1120994C2B1E591
:10092D000975F00A84FFE50975F00A84A9F0740FC2
:10093D002FF8E6F5A0D2B67F02120994C2B6AF0128
:10094D00740F2FF8E6F5A0D2B77F02120994C2B743
:01095D002277
:03000B0002095E89
:10095E00C0E0C0D0758C50758A38050BE50BC3947A
:10096E0014401E750B00E50ED394004002150EE5E3
:10097E0009D3940040021509E50AD39400400215EC
:06098E000AD0D0D0E032D7
:0909CD00C293C291D290D295228E
:0509DF00C295D2942234
:0909D600C290C294D293D2922285
:0509E400C292D2912235
:10088C00758921758C50758A3875A882D28CE4F5DF
:10089C0090850D0E850809850D0AE50ED394004050
:1008AC00081208FD1209CD80F1850C0E850C098506
:1008BC000C0AE50ED3940040081208FD1209DF80E3
:1008CC00F1850D0E850D0985080AE50ED3940040BF
:1008DC00081208FD1209D680F1850C0E850C0985CD
:1008EC000C0AE50ED3940040A81208FD1209E4800E
:0108FC00F10A
:10080C0002088CE493A3F8E493A34003F68001F26E
:10081C0008DFF48029E493A3F85407240CC8C333ED
:10082C00C4540F4420C8834004F456800146F6DFBC
:10083C00E4800B01020408102040809009B4E47E8F
:10084C00019360BCA3FF543F30E509541FFEE493B1
:10085C00A360010ECF54C025E060A840B8E493A378
:10086C00FAE493A3F8E493A3C8C582C8CAC583CAA3
:10087C00F0A3C8C582C8CAC583CADFE9DEE780BE5B
:0109CC00002A
:00000001FF
